:03000000020E5796
:100E570075C7AA75C75575FD5A75C7AA75C755755C
:100E6700FDA5787FE4F6D8FD9000007FFF7E03E4C0
:0C0E7700F0A3DFFCDEFA75815C020EBE09
:0A13700046696E616E6365204D0052
:0512F500035A00000097
:100D8500780A7C007D007BFF7A1379707E007F0AEC
:100D95001208D07F607E097D007C00120F03AD0A2A
:100DA5007F027E37120C347F647E007D007C00124A
:100DB500109FAD0B7F037E37120C347F647E007D60
:100DC500007C0012109FAD0C7F047E37120C347F1F
:100DD500647E007D007C0012109FAD0D7F057E377F
:100DE500120C347F647E007D007C0012109FAD0ED6
:100DF5007F067E37120C347F647E007D007C0012F6
:100E0500109FAD0F7F077E37120C347F647E007D07
:100E1500007C0012109FAD107F087E37120C347FC6
:100E2500647E007D007C0012109FAD117F097E3726
:100E3500120C347F647E007D007C0012109FAD1281
:100E45007F0A7E37120C347F647E007D007C0002B1
:020E5500109FEC
:0113A000222A
:101279007F7E121383AE5BAF5C1213931213837FCD
:0F1289003E1213837402255CF55CE4355BF55B64
:011298002233
:10123300E4F508F509120D85E4F508F5091213A084
:101243000509E50970020508C3940AE5086480945A
:051253008040EA80E389
:101054008F1F8E1E8D1D8C1C538EF7438901D28CDD
:10106400E4FFFEFDFCAB1FAA1EA91DA81CC31209A8
:10107400F96025758A7E758CFF308DFDC28DE51F64
:1010840024FFF51FE51E34FFF51EE51D34FFF51D95
:0B109400E51C34FFF51C80C8C28C2254
:10109F008F178E168D158C14538EF7438901D28CB2
:1010AF00E4FFFEFDFCAB17AA16A915A814C312097D
:1010BF00F96025758ACA758CFA308DFDC28DE517DA
:1010CF0024FFF517E51634FFF516E51534FFF51572
:0B10DF00E51434FFF51480C8C28C2219
:1010EA008F498E488D478C46538EEF438910D28E96
:1010FA00E4FFFEFDFCAB49AA48A947A846C312096A
:10110A00F96025758BEA758DCB308FFDC28FE54965
:10111A0024FFF549E54834FFF548E54734FFF5472C
:0B112A00E54634FFF54680C8C28E2267
:101006008F4D8E4C8D4B8C4A53C9BF53C9DF43C994
:1010160010D2CAE4FFFEFDFCAB4DAA4CA94BA84A70
:10102600C31209F9602575CC3075CDF830CFFDC2F5
:10103600CFE54D24FFF54DE54C34FFF54CE54B343B
:0E104600FFF54BE54A34FFF54A80C8C2CA22C6
:100F66008F518E508D4F8C4E75C40743C408E4FFD5
:100F7600FEFDFCAB51AA50A94FA84EC31209F96059
:100F86002B75C52C75C6CFE5C45410641070F85384
:100F9600C4EFE55124FFF551E55034FFF550E54F18
:100FA60034FFF54FE54E34FFF54E80C253C4F722A9
:100FB6008F558E548D538C5275C40743C408E4FF75
:100FC600FEFDFCAB55AA54A953A852C31209F960F9
:100FD6002B75C5D875C6FFE5C45410641070F85358
:100FE600C4EFE55524FFF555E55434FFF554E553B4
:100FF60034FFF553E55234FFF55280C253C4F7224D
:1012FA00042800000000042400000000022200006C
:0300230002135273
:0F13520030980BC29885992175220075230132BE
:05139B00AE22AF232289
:080F03008F178E168D158C145A
:100F0B00E47F20FEFDFCAB17AA16A915A814120945
:100F1B00AAA804A905AA06AB077F007E247DF47C52
:100F2B00001211BFA804A905AA06C3E49FF51B7400
:100F3B00019AF51AE499F519E498F518D2AF53B163
:100F4B00BF53B2BF53B17F53B27F759870C2AB43DF
:0A0F5B008920438E10851B8DD28E75
:010F65002269
:08138300C2998F993099FD22F7
:07138B003098FDAF99C298F4
:011392002238
:04120300AD07AC0681
:10120700E4FBFAC3EB9DEC6480F8EA648098501025
:1012170012138B74372BF8A6070BBB00010A80E368
:0B12270074372BF8E4F6FB7A007937EF
:011232002299
:101311001208F6FFFD3395E04D600C121383740142
:0813210029F9E43AFA80E922FF
:0113A100004B
:040AD8008E2C8F2DA4
:100ADC00752EFF752F137530A1E4F531F532F53312
:100AEC00F534F5357536017C007D0A120955053251
:100AFC00E53270020531EF4E70EDE532640145319F
:100B0C007021AE2CAF2DFC7D0A120955ED2430ABB3
:100B1C002EAA2FA93012090FAB2EAA2FA9309000A4
:100B2C00018042E53264024531703EAE2CAF2DFCA3
:100B3C007D0A1209557C007D0A120955ED2430AB53
:100B4C002EAA2FA93012090FAE2CAF2D7C007D0AD6
:100B5C00120955ED2430AB2EAA2FA93090000112AA
:100B6C000921900002E4020921AE2CAF2D7C007DFE
:100B7C000A1209557C007D0A120955ED2430FFAB91
:100B8C002EE5302532F9E52F3531FA90FFFEEF12C4
:100B9C000921AE2CAF2D7C007D0A120955ED2430B5
:100BAC00FFAB2EE5302532F9E52F3531FA90FFFFFA
:100BBC00EF120921AB2EAA2FA93085328285318301
:100BCC00E4120921E53224FDF534E53134FFF53327
:100BDC00C3E5339400404AAE35AF367C007D6412D9
:100BEC000943AC2CAD2DCFCDCFCECCCE1209557C3C
:100BFC00007D0A120955ED2430AB2EAA2FA93085A1
:100C0C003482853383120921AE35AF367C007D0AE0
:100C1C001209438E358F36E534153470B315338095
:070C2C00AFAB2EAA2FA93087
:010C3300229E
:06130A0004560000000083
:030083000212580E
:10125800C0E0C0D053C4EFE5592401F559E435582E
:10126800F558E43557F557E43556F556D0D0D0E063
:011278003243
:0F136100D2AF439C0275C54E75C6C143C4082266
:09137A00AF59AE58AD57AC562234
:060C34008E148F158D16D1
:100C3A00E4F517A915E9C39480748094805004E4FC
:100C4A00F9800279807D807C02E97A002400FFEA3B
:100C5A003514F5188F19ED7003EC6403601E8519BD
:100C6A0082851883E4938D828C83F005170DBD006D
:100C7A00010C0519E51970DE051880DAAB15A90310
:100C8A00E9C3948074809480E9500424808002240B
:100C9A0000FFE43402FCAD078D828C83E516F08BED
:100CAA00A6E514FFF5A775AEFFA2AF9200C2AF7515
:100CBA00C7AA75C755439F01A20092AFA2AF92007F
:100CCA00C2AF75C7AA75C75543A501A20092AF75F1
:100CDA00AF22A2AF9200C2AF75C7AA75C75543A487
:100CEA0001A20092AFA903E9C39480748094805052
:100CFA0004E4F9800279807C027D8089A68FA7A20C
:100D0A00AF9200C2AF75C7AA75C755439F01A2002B
:100D1A0092AFA2AF9200C2AF75C7AA75C75543A5D5
:100D2A0001A20092AF75AF21EDF47003EC6402608A
:100D3A00238D828C83E0F5AEA2AF9200C2AF75C755
:100D4A00AA75C75543A401A20092AF05A60DBD001E
:100D5A00010C80D4A2AF9200C2AF75C7AA75C7555D
:100D6A0053A5FEA20092AFA2AF9200C2AF75C7AA66
:0A0D7A0075C755539FFEA20092AF0B
:010D8400224C
:041393008F828E8334
:03139700E493FFDD
:01139A002230
:10133E0043B30843B40843B31043B410C2C075BEE0
:04134E0027D2C622BA
:1012B9007FE87E03D2C5C2C320C312D3EF9400EEE8
:0D12C900648094804007EF1F70EE1E80EBE4
:0112D60022F5
:1012D7007FE87E03C2C3D2C430C412D3EF9400EEBA
:0D12E700648094804007EF1F70EE1E80EBC6
:0112F40022D7
:101135007DE87C03E4FED2C2C2C320C312D3ED9482
:1011450000EC648094804007ED1D70EE1C80EBAED2
:10115500BCEF6401701D7C037DE8C2C2C2C320C31D
:1011650012D3ED9400EC648094804007ED1D70EE81
:051175001C80EBAF0639
:01117A002252
:06117B008B418A4289430A
:10118100E4F544F545121299AB41AA42A943121361
:10119100298E448F45E54545446022AB41AA42A9C9
:1011A100431208F6FF12129974012543F543E43501
:0D11B10042F542E545154570DC154480D837
:0111BE00220E
:101299007DE87C038FBCC2C5C2C320C312D3ED94C1
:0F12A90000EC648094804007ED1D70EE1C80EB1C
:0112B8002213
:100E8300021233E493A3F8E493A34003F68001F240
:100E930008DFF48029E493A3F85407240CC8C33370
:100EA300C4540F4420C8834004F456800146F6DF3F
:100EB300E4800B01020408102040809012F5E47EC8
:100EC300019360BCA3FF543F30E509541FFEE49334
:100ED300A360010ECF54C025E060A840B8E493A3FB
:100EE300FAE493A3F8E493A3C8C582C8CAC583CA26
:100EF300F0A3C8C582C8CAC583CADFE9DEE780BEDE
:0113100000DC
:10080000E709F608DFFA8046E709F208DFFA803EDA
:1008100088828C83E709F0A3DFFA8032E309F608C7
:10082000DFFA8078E309F208DFFA807088828C832F
:10083000E309F0A3DFFA806489828A83E0A3F608E3
:10084000DFFA805889828A83E0A3F208DFFA804CBD
:1008500080D280FA80C680D4806980F28033801094
:1008600080A680EA809A80A880DA80E280CA8033FD
:1008700089828A83ECFAE493A3C8C582C8CCC58375
:10088000CCF0A3C8C582C8CCC583CCDFE9DEE78045
:100890000D89828A83E493A3F608DFF9ECFAA9F0C4
:1008A000EDFB2289828A83ECFAE0A3C8C582C8CC1A
:1008B000C583CCF0A3C8C582C8CCC583CCDFEADE33
:1008C000E880DB89828A83E493A3F208DFF980CC95
:1008D00088F0EF60010E4E60C388F0ED2402B4048E
:1008E0000050B9F582EB2402B4040050AF23234535
:0608F00082239008507302
:1008F600BB010689828A83E0225002E722BBFE0200
:09090600E32289828A83E4932232
:10090F00BB010689828A83F0225002F722BBFE01C7
:02091F00F322C1
:10092100F8BB010DE58229F582E5833AF583E8F00C
:10093100225006E92582C8F622BBFE05E92582C8B8
:02094100F222A0
:10094300EF8DF0A4A8F0CF8CF0A428CE8DF0A42EC8
:02095300FE2282
:10095500BC000BBE0029EF8DF084FFADF022E4CC86
:10096500F875F008EF2FFFEE33FEEC33FCEE9DEC4F
:10097500984005FCEE9DFE0FD5F0E9E4CEFD22ED95
:10098500F8F5F0EE8420D21CFEADF075F008EF2FDF
:10099500FFED33FD4007985006D5F0F222C398FDD0
:0509A5000FD5F0EA226D
:1009AA00E88FF0A4CC8BF0A42CFCE98EF0A42CFCEC
:1009BA008AF0EDA42CFCEA8EF0A4CDA8F08BF0A46A
:1009CA002DCC3825F0FDE98FF0A42CCD35F0FCEBC9
:1009DA008EF0A4FEA9F0EB8FF0A4CFC5F02ECD398E
:0F09EA00FEE43CFCEAA42DCE35F0FDE43CFC22FB
:1011BF00C2D5E830E70FB2D5E4C39BFBE49AFAE45B
:1011CF0099F9E498F8EC30E717B2D51211F5120A35
:1011DF0046E4C39BFBE49AFAE499F9E498F8800398
:1011EF00120A4630D50DE4C39FFFE49EFEE49DFD39
:0411FF00E49CFC224E
:1009F900EB9FF5F0EA9E42F0E99D42F0E89C45F054
:010A090022CA
:10132900E4FFFE1208F6600C0FEF70010E09E97078
:05133900F20A80EF2222
:100A0A0075F008758200EF2FFFEE33FECD33CDCCA3
:100A1A0033CCC58233C5829BED9AEC99E582984026
:100A2A000CF582EE9BFEED9AFDEC99FC0FD5F0D603
:100A3A00E4CEFBE4CDFAE4CCF9A88222B800C1B92D
:100A4A000059BA002DEC8BF084CFCECDFCE5F0CB6B
:100A5A00F97818EF2FFFEE33FEED33FDEC33FCEBA4
:100A6A0033FB10D703994004EB99FB0FD8E5E4F95F
:100A7A00FA227818EF2FFFEE33FEED33FDEC33FC4C
:100A8A00C933C910D7059BE99A4007EC9BFCE99A40
:100A9A00F90FD8E0E4C9FAE4CCFB2275F010EF2F85
:100AAA00FFEE33FEED33FDCC33CCC833C810D70785
:100ABA009BEC9AE899400AED9BFDEC9AFCE899F8C0
:0E0ACA000FD5F0DAE4CDFBE4CCFAE4C8F92253
:00000001FF
